{
  "transactions": [
    {
      "hash": "0x66a9e96a23737f95e80b74dd301c8765ab0b1d78e704b9b6a7e6e2693594185b",
      "transactionType": "CREATE2",
      "contractName": "BriankerHook",
      "contractAddress": "0x62615015C858Fe817AbE51838CAd92cE7f8988c0",
      "function": null,
      "arguments": [
        "0x7Da1D65F8B249183667cdE74C5CBD46dD38AA829",
        "0xcDbe7b1ed817eF0005ECe6a3e576fbAE2EA5EAFE",
        "0x000000000022D473030F116dDEE9F6B43aC78BA3"
      ],
      "transaction": {
        "from": "0x83aDF05fe9f6B06AaE0Cffe5feAc085B5349E5c8",
        "to": "0x4e59b44847b379578588920cA78FbF26c0B4956C",
        "gas": "0x355da2",
        "value": "0x0",
        "input": "0x0000000000000000000000000000000000000000000000000000000000014a9e60a060405269d3c21bcecceda1000000600255600380546001600160a01b0319166e9896800000000000000000006ea96317905534801561003e575f80fd5b50604051612bcd380380612bcd83398101604081905261005d91610316565b6001600160a01b03831660805282610074306100a7565b50600480546001600160a01b039384166001600160a01b0319918216179091556005805492909316911617905550610360565b61019a81610195604080516101c0810182525f80825260208201819052918101829052606081018290526080810182905260a0810182905260c0810182905260e08101829052610100810182905261012081018290526101408101829052610160810182905261018081018290526101a081019190915250604080516101c0810182525f808252602082018190526001928201839052606082018190526080820181905260a0820181905260c0820183905260e0820192909252610100810182905261012081018290526101408101829052610160810182905261018081018290526101a081019190915290565b61019d565b50565b80511515612000831615151415806101c15750602081015115156110008316151514155b806101d85750604081015115156108008316151514155b806101ef5750606081015115156104008316151514155b806102065750608081015115156102008316151514155b8061021d575060a081015115156101008316151514155b80610233575060c0810151151560808316151514155b80610249575060e0810151151560408316151514155b806102605750610100810151151560208316151514155b806102775750610120810151151560108316151514155b8061028e5750610140810151151560088316151514155b806102a55750610160810151151560048316151514155b806102bc5750610180810151151560028316151514155b806102d357506101a0810151151560018316151514155b156102e9576102e9630732d7b560e51b836102ed565b5050565b815f526001600160a01b03811660045260245ffd5b6001600160a01b038116811461019a575f80fd5b5f805f60608486031215610328575f80fd5b835161033381610302565b602085015190935061034481610302565b604085015190925061035581610302565b809150509250925092565b6080516128476103865f395f818161045501528181610654015261080601526128475ff3fe608060405260043610610105575f3560e01c8063a1634b1411610092578063c4e833ce11610062578063c4e833ce14610341578063dc4c90d314610444578063dc98354e14610477578063ddca3f4314610491578063e1b4af6914610327575f80fd5b8063a1634b1414610294578063b42efe8b146102ab578063b47b2fb1146102d6578063b6a8b0fa14610327575f80fd5b8063575e24b4116100d8578063575e24b4146101c55780636c2bbe7e1461020f5780636fe7e6eb1461024e57806391dd7346146102685780639f063efc1461020f575f80fd5b806321d0ee7014610109578063259982e51461014657806346ca626b146101655780634ddf87221461018c575b5f80fd5b348015610114575f80fd5b506101286101233660046112cf565b6104ba565b6040516001600160e01b031990911681526020015b60405180910390f35b348015610151575f80fd5b506101286101603660046112cf565b6104d4565b348015610170575f80fd5b50610179603c81565b60405160029190910b815260200161013d565b348015610197575f80fd5b506101b76101a6366004611345565b5f6020819052908152604090205481565b60405190815260200161013d565b3480156101d0575f80fd5b506101e46101df36600461136c565b610583565b604080516001600160e01b03199094168452602084019290925262ffffff169082015260600161013d565b34801561021a575f80fd5b5061022e6102293660046113c5565b61062c565b604080516001600160e01b0319909316835260208301919091520161013d565b348015610259575f80fd5b5061012861012336600461145d565b348015610273575f80fd5b506102876102823660046114b6565b610647565b60405161013d9190611522565b34801561029f575f80fd5b50610179620d89b31981565b6102be6102b93660046115f0565b6106a5565b6040516001600160a01b03909116815260200161013d565b3480156102e1575f80fd5b506103046102f036600461165c565b63b47b2fb160e01b5f965096945050505050565b604080516001600160e01b03199093168352600f9190910b60208301520161013d565b348015610332575f80fd5b506101286101233660046116dc565b34801561034c575f80fd5b50610437604080516101c0810182525f80825260208201819052918101829052606081018290526080810182905260a0810182905260c0810182905260e08101829052610100810182905261012081018290526101408101829052610160810182905261018081018290526101a081019190915250604080516101c0810182525f808252602082018190526001928201839052606082018190526080820181905260a0820181905260c0820183905260e0820192909252610100810182905261012081018290526101408101829052610160810182905261018081018290526101a081019190915290565b60405161013d9190611735565b34801561044f575f80fd5b506102be7f000000000000000000000000000000000000000000000000000000000000000081565b348015610482575f80fd5b50610128610123366004611856565b34801561049c575f80fd5b506104a6610bb881565b60405162ffffff909116815260200161013d565b5f604051630a85dc2960e01b815260040160405180910390fd5b5f806104e28385018561189d565b90506001600160a01b0381163014801561050957506004546001600160a01b038881169116145b61056e5760405162461bcd60e51b815260206004820152602b60248201527f427269616e6b657220486f6f6b3a206e6f7420616c6c6f77656420746f20616460448201526a64206c697175696469747960a81b60648201526084015b60405180910390fd5b5063259982e560e01b90505b95945050505050565b5f80804281806105a261059b368c90038c018c6118b8565b60a0902090565b81526020019081526020015f2054106106145760405162461bcd60e51b815260206004820152602e60248201527f427269616e6b65723a205468697320706f6f6c2069736e2774206f70656e206660448201526d6f7220747261646573207965742160901b6064820152608401610565565b506315d7892d60e21b975f9750879650945050505050565b5f80604051630a85dc2960e01b815260040160405180910390fd5b6060336001600160a01b037f000000000000000000000000000000000000000000000000000000000000000016146106925760405163570c108560e11b815260040160405180910390fd5b61069c8383610be1565b90505b92915050565b5f6402540be4003481146107215760405162461bcd60e51b815260206004820152603960248201527f427269616e6b657220486f6f6b3a206e6f7420656e6f7567682065746865722060448201527f73656e7420746f20696e697469616c697a65206120706f6f6c000000000000006064820152608401610565565b61072e8585600254610c7a565b6040805160a0810182525f8082526001600160a01b0384166020830152610bb892820192909252603c60608201523060808201529193508490806107738460a0902090565b815260208101919091526040015f908120919091556003546107ba906001600160a01b03166107a5620d89b319610d1c565b6107b1620d89b4610d1c565b86600254610fd4565b6040805160018082528183019092529192505f9190816020015b60608152602001906001900390816107d45790505060035460405163313b65df60e11b81529192506001600160a01b037f0000000000000000000000000000000000000000000000000000000000000000811692636276cbbe9261083f928892911690600401611999565b6020604051808303815f875af115801561085b573d5f803e3d5ffd5b505050506040513d601f19601f8201168201806040525081019061087f91906119bf565b50604051600160f91b6020820152601160f81b60218201525f9060220160408051808303601f1901815260028084526060840190925292505f9190816020015b60608152602001906001900390816108bf5750506002546040805130602080830182905283518084039091018152828401909352939450610916938993620d89b31993620d89b4938b938e939290916060016119da565b604051602081830303815290604052815f8151811061093757610937611a48565b6020026020010181905250845f015185602001516040516020016109719291906001600160a01b0392831681529116602082015260400190565b6040516020818303038152906040528160018151811061099357610993611a48565b602090810291909101810191909152604051429163dd46508f60e01b916109be918691869101611ab6565b60408051601f19818403018152908290526109dd918490602401611ada565b604051602081830303815290604052906001600160e01b0319166020820180516001600160e01b038381831617835250505050845f81518110610a2257610a22611a48565b602090810291909101015260055460405163095ea7b360e01b81526001600160a01b0391821660048201525f1960248201529089169063095ea7b3906044016020604051808303815f875af1158015610a7d573d5f803e3d5ffd5b505050506040513d601f19601f82011682018060405250810190610aa19190611afb565b50600554600480546040516387517c4560e01b81526001600160a01b038c81169382019390935290821660248201526044810182905265ffffffffffff60648201529116906387517c45906084015f604051808303815f87803b158015610b06575f80fd5b505af1158015610b18573d5f803e3d5ffd5b50506040516001600160a01b038b1681527f91d24864a084ab70b268a1f865e757ca12006cf298d763b6be697302ef86498c9250602001905060405180910390a160048054604051631592ca1b60e31b81526001600160a01b039091169163ac9650d8916402540be40091610b8f91899101611b1a565b5f6040518083038185885af1158015610baa573d5f803e3d5ffd5b50505050506040513d5f823e601f3d908101601f19168201604052610bd29190810190611b2c565b50505050505050509392505050565b60605f80306001600160a01b03168585604051610bff929190611c32565b5f604051808303815f865af19150503d805f8114610c38576040519150601f19603f3d011682016040523d82523d5f602084013e610c3d565b606091505b50915091508115610c5157915061069f9050565b80515f03610c72576040516314815f4760e31b815260040160405180910390fd5b805160208201fd5b5f8060405180602001610c8c90611241565b601f1982820381018352601f909101166040819052600254610cb49188918891602001611c41565b60408051601f1981840301815290829052610cd29291602001611c8d565b60408051601f198184030181529190526001548151919250908190602084015ff59250823b610cff575f80fd5b60018054905f610d0e83611cb5565b919050555050509392505050565b60020b5f60ff82901d80830118620d89e8811115610d4557610d456345c3193d60e11b84611093565b7001fffcb933bd6fad37aa2d162d1a5940016001821602600160801b186002821615610d81576ffff97272373d413259a46990580e213a0260801c5b6004821615610da0576ffff2e50f5f656932ef12357cf3c7fdcc0260801c5b6008821615610dbf576fffe5caca7e10e4e61c3624eaa0941cd00260801c5b6010821615610dde576fffcb9843d60f6159c9db58835c9266440260801c5b6020821615610dfd576fff973b41fa98c081472e6896dfb254c00260801c5b6040821615610e1c576fff2ea16466c96a3843ec78b326b528610260801c5b6080821615610e3b576ffe5dee046a99a2a811c461f1969c30530260801c5b610100821615610e5b576ffcbe86c7900a88aedcffc83b479aa3a40260801c5b610200821615610e7b576ff987a7253ac413176f2b074cf7815e540260801c5b610400821615610e9b576ff3392b0822b70005940c7a398e4b70f30260801c5b610800821615610ebb576fe7159475a2c29b7443b29c7fa6e889d90260801c5b611000821615610edb576fd097f3bdfd2022b8845ad8f792aa58250260801c5b612000821615610efb576fa9f746462d870fdf8a65dc1f90e061e50260801c5b614000821615610f1b576f70d869a156d2a1b890bb3df62baf32f70260801c5b618000821615610f3b576f31be135f97d08fd981231505542fcfa60260801c5b62010000821615610f5c576f09aa508b5b7a84e1c677de54f3e99bc90260801c5b62020000821615610f7c576e5d6af8dedb81196699c329225ee6040260801c5b62040000821615610f9b576d2216e584f5fa1ea926041bedfe980260801c5b62080000821615610fb8576b048a170391f7dc42444e8fa20260801c5b5f841315610fc4575f19045b63ffffffff0160201c9392505050565b5f836001600160a01b0316856001600160a01b03161115610ff3579293925b846001600160a01b0316866001600160a01b03161161101e576110178585856110a2565b905061057a565b836001600160a01b0316866001600160a01b0316101561107e575f6110448786866110a2565b90505f611052878986611115565b9050806001600160801b0316826001600160801b0316106110735780611075565b815b9250505061057a565b611089858584611115565b9695505050505050565b815f528060020b60045260245ffd5b5f826001600160a01b0316846001600160a01b031611156110c1579192915b5f6110e3856001600160a01b0316856001600160a01b0316600160601b611152565b905061110a61110584836110f78989611ccd565b6001600160a01b0316611152565b6111ee565b9150505b9392505050565b5f826001600160a01b0316846001600160a01b03161115611134579192915b61114a61110583600160601b6110f78888611ccd565b949350505050565b5f838302815f1985870982811083820303915050808411611171575f80fd5b805f036111835750829004905061110e565b5f848688095f868103871696879004966002600389028118808a02820302808a02820302808a02820302808a02820302808a02820302808a02909103029181900381900460010186841190950394909402919094039290920491909117919091029150509392505050565b806001600160801b038116811461123c5760405162461bcd60e51b81526020600482015260126024820152716c6971756964697479206f766572666c6f7760701b6044820152606401610565565b919050565b610b2580611ced83390190565b6001600160a01b0381168114611262575f80fd5b50565b5f60a08284031215611275575f80fd5b50919050565b5f60808284031215611275575f80fd5b5f8083601f84011261129b575f80fd5b5081356001600160401b038111156112b1575f80fd5b6020830191508360208285010111156112c8575f80fd5b9250929050565b5f805f805f61016086880312156112e4575f80fd5b85356112ef8161124e565b94506112fe8760208801611265565b935061130d8760c0880161127b565b92506101408601356001600160401b03811115611328575f80fd5b6113348882890161128b565b969995985093965092949392505050565b5f60208284031215611355575f80fd5b5035919050565b5f60608284031215611275575f80fd5b5f805f805f6101408688031215611381575f80fd5b853561138c8161124e565b945061139b8760208801611265565b93506113aa8760c0880161135c565b92506101208601356001600160401b03811115611328575f80fd5b5f805f805f805f6101a0888a0312156113dc575f80fd5b87356113e78161124e565b96506113f68960208a01611265565b95506114058960c08a0161127b565b9450610140880135935061016088013592506101808801356001600160401b03811115611430575f80fd5b61143c8a828b0161128b565b989b979a50959850939692959293505050565b8060020b8114611262575f80fd5b5f805f806101008587031215611471575f80fd5b843561147c8161124e565b935061148b8660208701611265565b925060c085013561149b8161124e565b915060e08501356114ab8161144f565b939692955090935050565b5f80602083850312156114c7575f80fd5b82356001600160401b038111156114dc575f80fd5b6114e88582860161128b565b90969095509350505050565b5f81518084528060208401602086015e5f602082860101526020601f19601f83011685010191505092915050565b602081525f61069c60208301846114f4565b634e487b7160e01b5f52604160045260245ffd5b604051601f8201601f191681016001600160401b038111828210171561157057611570611534565b604052919050565b5f6001600160401b0382111561159057611590611534565b50601f01601f191660200190565b5f82601f8301126115ad575f80fd5b81356115c06115bb82611578565b611548565b8181528460208386010111156115d4575f80fd5b816020850160208301375f918101602001919091529392505050565b5f805f60608486031215611602575f80fd5b83356001600160401b03811115611617575f80fd5b6116238682870161159e565b93505060208401356001600160401b0381111561163e575f80fd5b61164a8682870161159e565b93969395505050506040919091013590565b5f805f805f806101608789031215611672575f80fd5b863561167d8161124e565b955061168c8860208901611265565b945061169b8860c0890161135c565b935061012087013592506101408701356001600160401b038111156116be575f80fd5b6116ca89828a0161128b565b979a9699509497509295939492505050565b5f805f805f8061012087890312156116f2575f80fd5b86356116fd8161124e565b955061170c8860208901611265565b945060c0870135935060e087013592506101008701356001600160401b038111156116be575f80fd5b8151151581526101c081016020830151611753602084018215159052565b506040830151611767604084018215159052565b50606083015161177b606084018215159052565b50608083015161178f608084018215159052565b5060a08301516117a360a084018215159052565b5060c08301516117b760c084018215159052565b5060e08301516117cb60e084018215159052565b506101008301516117e161010084018215159052565b506101208301516117f761012084018215159052565b5061014083015161180d61014084018215159052565b5061016083015161182361016084018215159052565b5061018083015161183961018084018215159052565b506101a083015161184f6101a084018215159052565b5092915050565b5f805f60e08486031215611868575f80fd5b83356118738161124e565b92506118828560208601611265565b915060c08401356118928161124e565b809150509250925092565b5f602082840312156118ad575f80fd5b813561110e8161124e565b5f60a08284031280156118c9575f80fd5b5060405160a081016001600160401b03811182821017156118ec576118ec611534565b60405282356118fa8161124e565b8152602083013561190a8161124e565b6020820152604083013562ffffff81168114611924575f80fd5b604082015260608301356119378161144f565b6060820152608083013561194a8161124e565b60808201529392505050565b80516001600160a01b03908116835260208083015182169084015260408083015162ffffff169084015260608083015160020b9084015260809182015116910152565b60c081016119a78285611956565b6001600160a01b039290921660a09190910152919050565b5f602082840312156119cf575f80fd5b815161110e8161144f565b6119e4818a611956565b8760020b60a08201528660020b60c08201526001600160801b03861660e0820152846101008201528361012082015260018060a01b0383166101408201526101806101608201525f611a3a6101808301846114f4565b9a9950505050505050505050565b634e487b7160e01b5f52603260045260245ffd5b5f82825180855260208501945060208160051b830101602085015f5b83811015611aaa57601f19858403018852611a948383516114f4565b6020988901989093509190910190600101611a78565b50909695505050505050565b604081525f611ac860408301856114f4565b828103602084015261110a8185611a5c565b604081525f611aec60408301856114f4565b90508260208301529392505050565b5f60208284031215611b0b575f80fd5b8151801515811461110e575f80fd5b602081525f61069c6020830184611a5c565b5f60208284031215611b3c575f80fd5b81516001600160401b03811115611b51575f80fd5b8201601f81018413611b61575f80fd5b80516001600160401b03811115611b7a57611b7a611534565b8060051b611b8a60208201611548565b91825260208184018101929081019087841115611ba5575f80fd5b6020850192505b83831015611c275782516001600160401b03811115611bc9575f80fd5b8501603f81018913611bd9575f80fd5b6020810151611bea6115bb82611578565b8181526040838301018b1015611bfe575f80fd5b8160408401602083015e5f60208383010152808552505050602082019150602083019250611bac565b979650505050505050565b818382375f9101908152919050565b606081525f611c5360608301866114f4565b8281036020840152611c6581866114f4565b915050826040830152949350505050565b5f81518060208401855e5f93019283525090919050565b5f61114a611c9b8386611c76565b84611c76565b634e487b7160e01b5f52601160045260245ffd5b5f60018201611cc657611cc6611ca1565b5060010190565b6001600160a01b03828116828216039081111561069f5761069f611ca156fe608060405234801561000f575f80fd5b50604051610b25380380610b2583398101604081905261002e91610264565b8282600361003c8382610355565b5060046100498282610355565b50505061005c338261006460201b60201c565b505050610434565b6001600160a01b0382166100925760405163ec442f0560e01b81525f60048201526024015b60405180910390fd5b61009d5f83836100a1565b5050565b6001600160a01b0383166100cb578060025f8282546100c0919061040f565b9091555061013b9050565b6001600160a01b0383165f908152602081905260409020548181101561011d5760405163391434e360e21b81526001600160a01b03851660048201526024810182905260448101839052606401610089565b6001600160a01b0384165f9081526020819052604090209082900390555b6001600160a01b03821661015757600280548290039055610175565b6001600160a01b0382165f9081526020819052604090208054820190555b816001600160a01b0316836001600160a01b03167fddf252ad1be2c89b69c2b068fc378daa952ba7f163c4a11628f55a4df523b3ef836040516101ba91815260200190565b60405180910390a3505050565b634e487b7160e01b5f52604160045260245ffd5b5f82601f8301126101ea575f80fd5b81516001600160401b03811115610203576102036101c7565b604051601f8201601f19908116603f011681016001600160401b0381118282101715610231576102316101c7565b604052818152838201602001851015610248575f80fd5b8160208501602083015e5f918101602001919091529392505050565b5f805f60608486031215610276575f80fd5b83516001600160401b0381111561028b575f80fd5b610297868287016101db565b602086015190945090506001600160401b038111156102b4575f80fd5b6102c0868287016101db565b925050604084015190509250925092565b600181811c908216806102e557607f821691505b60208210810361030357634e487b7160e01b5f52602260045260245ffd5b50919050565b601f82111561035057805f5260205f20601f840160051c8101602085101561032e5750805b601f840160051c820191505b8181101561034d575f815560010161033a565b50505b505050565b81516001600160401b0381111561036e5761036e6101c7565b6103828161037c84546102d1565b84610309565b6020601f8211600181146103b4575f831561039d5750848201515b5f19600385901b1c1916600184901b17845561034d565b5f84815260208120601f198516915b828110156103e357878501518255602094850194600190920191016103c3565b508482101561040057868401515f19600387901b60f8161c191681555b50505050600190811b01905550565b8082018082111561042e57634e487b7160e01b5f52601160045260245ffd5b92915050565b6106e4806104415f395ff3fe608060405234801561000f575f80fd5b5060043610610090575f3560e01c8063313ce56711610063578063313ce567146100fa57806370a082311461010957806395d89b4114610131578063a9059cbb14610139578063dd62ed3e1461014c575f80fd5b806306fdde0314610094578063095ea7b3146100b257806318160ddd146100d557806323b872dd146100e7575b5f80fd5b61009c610184565b6040516100a99190610554565b60405180910390f35b6100c56100c03660046105a4565b610214565b60405190151581526020016100a9565b6002545b6040519081526020016100a9565b6100c56100f53660046105cc565b61022d565b604051601281526020016100a9565b6100d9610117366004610606565b6001600160a01b03165f9081526020819052604090205490565b61009c610250565b6100c56101473660046105a4565b61025f565b6100d961015a366004610626565b6001600160a01b039182165f90815260016020908152604080832093909416825291909152205490565b60606003805461019390610657565b80601f01602080910402602001604051908101604052809291908181526020018280546101bf90610657565b801561020a5780601f106101e15761010080835404028352916020019161020a565b820191905f5260205f20905b8154815290600101906020018083116101ed57829003601f168201915b5050505050905090565b5f3361022181858561026c565b60019150505b92915050565b5f3361023a85828561027e565b6102458585856102ff565b506001949350505050565b60606004805461019390610657565b5f336102218185856102ff565b610279838383600161035c565b505050565b6001600160a01b038381165f908152600160209081526040808320938616835292905220545f198110156102f957818110156102eb57604051637dc7a0d960e11b81526001600160a01b038416600482015260248101829052604481018390526064015b60405180910390fd5b6102f984848484035f61035c565b50505050565b6001600160a01b03831661032857604051634b637e8f60e11b81525f60048201526024016102e2565b6001600160a01b0382166103515760405163ec442f0560e01b81525f60048201526024016102e2565b61027983838361042e565b6001600160a01b0384166103855760405163e602df0560e01b81525f60048201526024016102e2565b6001600160a01b0383166103ae57604051634a1406b160e11b81525f60048201526024016102e2565b6001600160a01b038085165f90815260016020908152604080832093871683529290522082905580156102f957826001600160a01b0316846001600160a01b03167f8c5be1e5ebec7d5bd14f71427d1e84f3dd0314c0f7b2291e5b200ac8c7c3b9258460405161042091815260200190565b60405180910390a350505050565b6001600160a01b038316610458578060025f82825461044d919061068f565b909155506104c89050565b6001600160a01b0383165f90815260208190526040902054818110156104aa5760405163391434e360e21b81526001600160a01b038516600482015260248101829052604481018390526064016102e2565b6001600160a01b0384165f9081526020819052604090209082900390555b6001600160a01b0382166104e457600280548290039055610502565b6001600160a01b0382165f9081526020819052604090208054820190555b816001600160a01b0316836001600160a01b03167fddf252ad1be2c89b69c2b068fc378daa952ba7f163c4a11628f55a4df523b3ef8360405161054791815260200190565b60405180910390a3505050565b602081525f82518060208401528060208501604085015e5f604082850101526040601f19601f83011684010191505092915050565b80356001600160a01b038116811461059f575f80fd5b919050565b5f80604083850312156105b5575f80fd5b6105be83610589565b946020939093013593505050565b5f805f606084860312156105de575f80fd5b6105e784610589565b92506105f560208501610589565b929592945050506040919091013590565b5f60208284031215610616575f80fd5b61061f82610589565b9392505050565b5f8060408385031215610637575f80fd5b61064083610589565b915061064e60208401610589565b90509250929050565b600181811c9082168061066b57607f821691505b60208210810361068957634e487b7160e01b5f52602260045260245ffd5b50919050565b8082018082111561022757634e487b7160e01b5f52601160045260245ffdfea2646970667358221220cd77681deabfe8869a1bc24c6d6410a459b46b0172022d6decdcb990256e66eb64736f6c634300081a0033a26469706673582212200967ff9afb576fb9c0cf569844b47d7a5fbddddabcd50304a5c0c78ee87ffca464736f6c634300081a00330000000000000000000000007da1d65f8b249183667cde74c5cbd46dd38aa829000000000000000000000000cdbe7b1ed817ef0005ece6a3e576fbae2ea5eafe000000000000000000000000000000000022d473030f116ddee9f6b43ac78ba3",
        "nonce": "0x15",
        "chainId": "0x14a34"
      },
      "additionalContracts": [],
      "isFixedGasLimit": false
    },
    {
      "hash": "0x4383cb8fed46dcbe56d3d88513ddb4a6667811f28d332efc64690c09ea078a64",
      "transactionType": "CALL",
      "contractName": "BriankerHook",
      "contractAddress": "0x62615015C858Fe817AbE51838CAd92cE7f8988c0",
      "function": "launchTokenWithTimeLock(string,string,uint256)",
      "arguments": [
        "Test",
        "TST",
        "1732838245"
      ],
      "transaction": {
        "from": "0x83aDF05fe9f6B06AaE0Cffe5feAc085B5349E5c8",
        "to": "0x62615015C858Fe817AbE51838CAd92cE7f8988c0",
        "gas": "0x160c59",
        "value": "0x2540be400",
        "input": "0xb42efe8b000000000000000000000000000000000000000000000000000000000000006000000000000000000000000000000000000000000000000000000000000000a000000000000000000000000000000000000000000000000000000000674903650000000000000000000000000000000000000000000000000000000000000004546573740000000000000000000000000000000000000000000000000000000000000000000000000000000000000000000000000000000000000000000000035453540000000000000000000000000000000000000000000000000000000000",
        "nonce": "0x16",
        "chainId": "0x14a34"
      },
      "additionalContracts": [],
      "isFixedGasLimit": false
    },
    {
      "hash": "0xdcf4fcd8b8ffb44db01961147badfb2b8e6a722c23fa91b3394f92ca3056d202",
      "transactionType": "CALL",
      "contractName": null,
      "contractAddress": "0x96E3495b712c6589f1D2c50635FDE68CF17AC83c",
      "function": "swap((address,address,uint24,int24,address),(bool,int256,uint160),(bool,bool),bytes)",
      "arguments": [
        "(0x0000000000000000000000000000000000000000, 0x1886F6Cb5a6BB3c15B55fc75207Ef838955bbFB8, 3000, 60, 0x62615015C858Fe817AbE51838CAd92cE7f8988c0)",
        "(true, -1000000000000000, 4295128740)",
        "(false, false)",
        "0x"
      ],
      "transaction": {
        "from": "0x83aDF05fe9f6B06AaE0Cffe5feAc085B5349E5c8",
        "to": "0x96E3495b712c6589f1D2c50635FDE68CF17AC83c",
        "gas": "0x4fc20",
        "value": "0x38d7ea4c68000",
        "input": "0x2229d0b400000000000000000000000000000000000000000000000000000000000000000000000000000000000000001886f6cb5a6bb3c15b55fc75207ef838955bbfb80000000000000000000000000000000000000000000000000000000000000bb8000000000000000000000000000000000000000000000000000000000000003c00000000000000000000000062615015c858fe817abe51838cad92ce7f8988c00000000000000000000000000000000000000000000000000000000000000001fffffffffffffffffffffffffffffffffffffffffffffffffffc72815b39800000000000000000000000000000000000000000000000000000000001000276a40000000000000000000000000000000000000000000000000000000000000000000000000000000000000000000000000000000000000000000000000000000000000000000000000000000000000000000000000000000000000000000001600000000000000000000000000000000000000000000000000000000000000000",
        "nonce": "0x17",
        "chainId": "0x14a34"
      },
      "additionalContracts": [],
      "isFixedGasLimit": false
    },
    {
      "hash": "0x7a372a8f3f9c3906ef40afb6d3925a50267e0c3080f6e0ee2b28231aeeea8b29",
      "transactionType": "CALL",
      "contractName": null,
      "contractAddress": "0x96E3495b712c6589f1D2c50635FDE68CF17AC83c",
      "function": "swap((address,address,uint24,int24,address),(bool,int256,uint160),(bool,bool),bytes)",
      "arguments": [
        "(0x0000000000000000000000000000000000000000, 0x1886F6Cb5a6BB3c15B55fc75207Ef838955bbFB8, 3000, 60, 0x62615015C858Fe817AbE51838CAd92cE7f8988c0)",
        "(true, -1000000000000000, 4295128740)",
        "(false, false)",
        "0x"
      ],
      "transaction": {
        "from": "0x83aDF05fe9f6B06AaE0Cffe5feAc085B5349E5c8",
        "to": "0x96E3495b712c6589f1D2c50635FDE68CF17AC83c",
        "gas": "0x26a63",
        "value": "0x38d7ea4c68000",
        "input": "0x2229d0b400000000000000000000000000000000000000000000000000000000000000000000000000000000000000001886f6cb5a6bb3c15b55fc75207ef838955bbfb80000000000000000000000000000000000000000000000000000000000000bb8000000000000000000000000000000000000000000000000000000000000003c00000000000000000000000062615015c858fe817abe51838cad92ce7f8988c00000000000000000000000000000000000000000000000000000000000000001fffffffffffffffffffffffffffffffffffffffffffffffffffc72815b39800000000000000000000000000000000000000000000000000000000001000276a40000000000000000000000000000000000000000000000000000000000000000000000000000000000000000000000000000000000000000000000000000000000000000000000000000000000000000000000000000000000000000000001600000000000000000000000000000000000000000000000000000000000000000",
        "nonce": "0x18",
        "chainId": "0x14a34"
      },
      "additionalContracts": [],
      "isFixedGasLimit": false
    },
    {
      "hash": "0x52a8b5d0f860a9a00d4b4425cb2a50f498d2b39561e12bf347e723de3f49643a",
      "transactionType": "CALL",
      "contractName": null,
      "contractAddress": "0x96E3495b712c6589f1D2c50635FDE68CF17AC83c",
      "function": "swap((address,address,uint24,int24,address),(bool,int256,uint160),(bool,bool),bytes)",
      "arguments": [
        "(0x0000000000000000000000000000000000000000, 0x1886F6Cb5a6BB3c15B55fc75207Ef838955bbFB8, 3000, 60, 0x62615015C858Fe817AbE51838CAd92cE7f8988c0)",
        "(true, -1000000000000000, 4295128740)",
        "(false, false)",
        "0x"
      ],
      "transaction": {
        "from": "0x83aDF05fe9f6B06AaE0Cffe5feAc085B5349E5c8",
        "to": "0x96E3495b712c6589f1D2c50635FDE68CF17AC83c",
        "gas": "0x26a37",
        "value": "0x38d7ea4c68000",
        "input": "0x2229d0b400000000000000000000000000000000000000000000000000000000000000000000000000000000000000001886f6cb5a6bb3c15b55fc75207ef838955bbfb80000000000000000000000000000000000000000000000000000000000000bb8000000000000000000000000000000000000000000000000000000000000003c00000000000000000000000062615015c858fe817abe51838cad92ce7f8988c00000000000000000000000000000000000000000000000000000000000000001fffffffffffffffffffffffffffffffffffffffffffffffffffc72815b39800000000000000000000000000000000000000000000000000000000001000276a40000000000000000000000000000000000000000000000000000000000000000000000000000000000000000000000000000000000000000000000000000000000000000000000000000000000000000000000000000000000000000000001600000000000000000000000000000000000000000000000000000000000000000",
        "nonce": "0x19",
        "chainId": "0x14a34"
      },
      "additionalContracts": [],
      "isFixedGasLimit": false
    }
  ],
  "receipts": [
    {
      "status": "0x1",
      "cumulativeGasUsed": "0x2c168b",
      "logs": [],
      "logsBloom": "0x00000000000000000000000000000000000000000000000000000000000000000000000000000000000000000000000000000000000000000000000000000000000000000000000000000000000000000000000000000000000000000000000000000000000000000000000000000000000000000000000000000000000000000000000000000000000000000000000000000000000000000000000000000000000000000000000000000000000000000000000000000000000000000000000000000000000000000000000000000000000000000000000000000000000000000000000000000000000000000000000000000000000000000000000000000000",
      "type": "0x2",
      "transactionHash": "0x66a9e96a23737f95e80b74dd301c8765ab0b1d78e704b9b6a7e6e2693594185b",
      "transactionIndex": "0x2",
      "blockHash": "0x70814dd6ca1cb336d34ed6f8c169414a8021ee37bfa5fdc7ab366d01fe73bcc7",
      "blockNumber": "0x11ad24d",
      "gasUsed": "0x247d4a",
      "effectiveGasPrice": "0x12b232",
      "from": "0x83aDF05fe9f6B06AaE0Cffe5feAc085B5349E5c8",
      "to": "0x4e59b44847b379578588920cA78FbF26c0B4956C",
      "contractAddress": null,
      "l1BaseFeeScalar": "0x44d",
      "l1BlobBaseFee": "0xbc0",
      "l1BlobBaseFeeScalar": "0xa118b",
      "l1Fee": "0x1370b161",
      "l1GasPrice": "0x2a736a",
      "l1GasUsed": "0x18fbf"
    },
    {
      "status": "0x1",
      "cumulativeGasUsed": "0x3b29ee",
      "logs": [
        {
          "address": "0x1886F6Cb5a6BB3c15B55fc75207Ef838955bbFB8",
          "topics": [
            "0xddf252ad1be2c89b69c2b068fc378daa952ba7f163c4a11628f55a4df523b3ef",
            "0x0000000000000000000000000000000000000000000000000000000000000000",
            "0x00000000000000000000000062615015c858fe817abe51838cad92ce7f8988c0"
          ],
          "data": "0x00000000000000000000000000000000000000000000d3c21bcecceda1000000",
          "blockHash": "0x70814dd6ca1cb336d34ed6f8c169414a8021ee37bfa5fdc7ab366d01fe73bcc7",
          "blockNumber": "0x11ad24d",
          "transactionHash": "0x4383cb8fed46dcbe56d3d88513ddb4a6667811f28d332efc64690c09ea078a64",
          "transactionIndex": "0x3",
          "logIndex": "0x8",
          "removed": false
        },
        {
          "address": "0x7Da1D65F8B249183667cdE74C5CBD46dD38AA829",
          "topics": [
            "0xdd466e674ea557f56295e2d0218a125ea4b4f0f6f3307b95f85e6110838d6438",
            "0xa79a7ad94ddf2c9bc2f821cadf44f49e1f3bd3d561e7e6828fd5a4a21b55f8c2",
            "0x0000000000000000000000000000000000000000000000000000000000000000",
            "0x0000000000000000000000001886f6cb5a6bb3c15b55fc75207ef838955bbfb8"
          ],
          "data": "0x0000000000000000000000000000000000000000000000000000000000000bb8000000000000000000000000000000000000000000000000000000000000003c00000000000000000000000062615015c858fe817abe51838cad92ce7f8988c000000000000000000000000000000000009896800000000000000000006ea963000000000000000000000000000000000000000000000000000000000004eb4a",
          "blockHash": "0x70814dd6ca1cb336d34ed6f8c169414a8021ee37bfa5fdc7ab366d01fe73bcc7",
          "blockNumber": "0x11ad24d",
          "transactionHash": "0x4383cb8fed46dcbe56d3d88513ddb4a6667811f28d332efc64690c09ea078a64",
          "transactionIndex": "0x3",
          "logIndex": "0x9",
          "removed": false
        },
        {
          "address": "0x1886F6Cb5a6BB3c15B55fc75207Ef838955bbFB8",
          "topics": [
            "0x8c5be1e5ebec7d5bd14f71427d1e84f3dd0314c0f7b2291e5b200ac8c7c3b925",
            "0x00000000000000000000000062615015c858fe817abe51838cad92ce7f8988c0",
            "0x000000000000000000000000000000000022d473030f116ddee9f6b43ac78ba3"
          ],
          "data": "0xffffffffffffffffffffffffffffffffffffffffffffffffffffffffffffffff",
          "blockHash": "0x70814dd6ca1cb336d34ed6f8c169414a8021ee37bfa5fdc7ab366d01fe73bcc7",
          "blockNumber": "0x11ad24d",
          "transactionHash": "0x4383cb8fed46dcbe56d3d88513ddb4a6667811f28d332efc64690c09ea078a64",
          "transactionIndex": "0x3",
          "logIndex": "0xa",
          "removed": false
        },
        {
          "address": "0x000000000022D473030F116dDEE9F6B43aC78BA3",
          "topics": [
            "0xda9fa7c1b00402c17d0161b249b1ab8bbec047c5a52207b9c112deffd817036b",
            "0x00000000000000000000000062615015c858fe817abe51838cad92ce7f8988c0",
            "0x0000000000000000000000001886f6cb5a6bb3c15b55fc75207ef838955bbfb8",
            "0x000000000000000000000000cdbe7b1ed817ef0005ece6a3e576fbae2ea5eafe"
          ],
          "data": "0x000000000000000000000000ffffffffffffffffffffffffffffffffffffffff0000000000000000000000000000000000000000000000000000ffffffffffff",
          "blockHash": "0x70814dd6ca1cb336d34ed6f8c169414a8021ee37bfa5fdc7ab366d01fe73bcc7",
          "blockNumber": "0x11ad24d",
          "transactionHash": "0x4383cb8fed46dcbe56d3d88513ddb4a6667811f28d332efc64690c09ea078a64",
          "transactionIndex": "0x3",
          "logIndex": "0xb",
          "removed": false
        },
        {
          "address": "0x62615015C858Fe817AbE51838CAd92cE7f8988c0",
          "topics": [
            "0x91d24864a084ab70b268a1f865e757ca12006cf298d763b6be697302ef86498c"
          ],
          "data": "0x0000000000000000000000001886f6cb5a6bb3c15b55fc75207ef838955bbfb8",
          "blockHash": "0x70814dd6ca1cb336d34ed6f8c169414a8021ee37bfa5fdc7ab366d01fe73bcc7",
          "blockNumber": "0x11ad24d",
          "transactionHash": "0x4383cb8fed46dcbe56d3d88513ddb4a6667811f28d332efc64690c09ea078a64",
          "transactionIndex": "0x3",
          "logIndex": "0xc",
          "removed": false
        },
        {
          "address": "0xcDbe7b1ed817eF0005ECe6a3e576fbAE2EA5EAFE",
          "topics": [
            "0xddf252ad1be2c89b69c2b068fc378daa952ba7f163c4a11628f55a4df523b3ef",
            "0x0000000000000000000000000000000000000000000000000000000000000000",
            "0x00000000000000000000000062615015c858fe817abe51838cad92ce7f8988c0",
            "0x000000000000000000000000000000000000000000000000000000000000004a"
          ],
          "data": "0x",
          "blockHash": "0x70814dd6ca1cb336d34ed6f8c169414a8021ee37bfa5fdc7ab366d01fe73bcc7",
          "blockNumber": "0x11ad24d",
          "transactionHash": "0x4383cb8fed46dcbe56d3d88513ddb4a6667811f28d332efc64690c09ea078a64",
          "transactionIndex": "0x3",
          "logIndex": "0xd",
          "removed": false
        },
        {
          "address": "0x7Da1D65F8B249183667cdE74C5CBD46dD38AA829",
          "topics": [
            "0xf208f4912782fd25c7f114ca3723a2d5dd6f3bcc3ac8db5af63baa85f711d5ec",
            "0xa79a7ad94ddf2c9bc2f821cadf44f49e1f3bd3d561e7e6828fd5a4a21b55f8c2",
            "0x000000000000000000000000cdbe7b1ed817ef0005ece6a3e576fbae2ea5eafe"
          ],
          "data": "0xfffffffffffffffffffffffffffffffffffffffffffffffffffffffffff2764c00000000000000000000000000000000000000000000000000000000000d89b4000000000000000000000000000000000000000000000000016345785d8a0000000000000000000000000000000000000000000000000000000000000000004a",
          "blockHash": "0x70814dd6ca1cb336d34ed6f8c169414a8021ee37bfa5fdc7ab366d01fe73bcc7",
          "blockNumber": "0x11ad24d",
          "transactionHash": "0x4383cb8fed46dcbe56d3d88513ddb4a6667811f28d332efc64690c09ea078a64",
          "transactionIndex": "0x3",
          "logIndex": "0xe",
          "removed": false
        },
        {
          "address": "0x1886F6Cb5a6BB3c15B55fc75207Ef838955bbFB8",
          "topics": [
            "0xddf252ad1be2c89b69c2b068fc378daa952ba7f163c4a11628f55a4df523b3ef",
            "0x00000000000000000000000062615015c858fe817abe51838cad92ce7f8988c0",
            "0x0000000000000000000000007da1d65f8b249183667cde74c5cbd46dd38aa829"
          ],
          "data": "0x00000000000000000000000000000000000000000000d3c21bcecceda1000000",
          "blockHash": "0x70814dd6ca1cb336d34ed6f8c169414a8021ee37bfa5fdc7ab366d01fe73bcc7",
          "blockNumber": "0x11ad24d",
          "transactionHash": "0x4383cb8fed46dcbe56d3d88513ddb4a6667811f28d332efc64690c09ea078a64",
          "transactionIndex": "0x3",
          "logIndex": "0xf",
          "removed": false
        }
      ],
      "logsBloom": "0x00010000000000000000000000000000000000000020020000008000000000000000000000000000000010000100000001100000800000000000000008280000000000000000000000004048000000000000100000000800000000000800000008000000020000200000000000014801004000000000004000000010000000000020000001002008000000000000002000000001000000000000000000220008020004000200020000000000000400000000010000000000000000080400000000000002000000000000000000010000000000000000000040000020000020001010000108000000000000000000000005000000000000000000000000000400",
      "type": "0x2",
      "transactionHash": "0x4383cb8fed46dcbe56d3d88513ddb4a6667811f28d332efc64690c09ea078a64",
      "transactionIndex": "0x3",
      "blockHash": "0x70814dd6ca1cb336d34ed6f8c169414a8021ee37bfa5fdc7ab366d01fe73bcc7",
      "blockNumber": "0x11ad24d",
      "gasUsed": "0xf1363",
      "effectiveGasPrice": "0x12b232",
      "from": "0x83aDF05fe9f6B06AaE0Cffe5feAc085B5349E5c8",
      "to": "0x62615015C858Fe817AbE51838CAd92cE7f8988c0",
      "contractAddress": null,
      "l1BaseFeeScalar": "0x44d",
      "l1BlobBaseFee": "0xbc0",
      "l1BlobBaseFeeScalar": "0xa118b",
      "l1Fee": "0x4f776c",
      "l1GasPrice": "0x2a736a",
      "l1GasUsed": "0x662"
    },
    {
      "status": "0x1",
      "cumulativeGasUsed": "0x3e927f",
      "logs": [
        {
          "address": "0x7Da1D65F8B249183667cdE74C5CBD46dD38AA829",
          "topics": [
            "0x40e9cecb9f5f1f1c5b9c97dec2917b7ee92e57ba5563708daca94dd84ad7112f",
            "0xa79a7ad94ddf2c9bc2f821cadf44f49e1f3bd3d561e7e6828fd5a4a21b55f8c2",
            "0x00000000000000000000000096e3495b712c6589f1d2c50635fde68cf17ac83c"
          ],
          "data": "0xfffffffffffffffffffffffffffffffffffffffffffffffffffc72815b39800000000000000000000000000000000000000000000000d3c1909d1e7720d0823a00000000000000000000000000000000000000644cc607907c85616455e929c0000000000000000000000000000000000000000000000000016345785d8a000000000000000000000000000000000000000000000000000000000000000168070000000000000000000000000000000000000000000000000000000000000bb8",
          "blockHash": "0x70814dd6ca1cb336d34ed6f8c169414a8021ee37bfa5fdc7ab366d01fe73bcc7",
          "blockNumber": "0x11ad24d",
          "transactionHash": "0xdcf4fcd8b8ffb44db01961147badfb2b8e6a722c23fa91b3394f92ca3056d202",
          "transactionIndex": "0x4",
          "logIndex": "0x10",
          "removed": false
        },
        {
          "address": "0x1886F6Cb5a6BB3c15B55fc75207Ef838955bbFB8",
          "topics": [
            "0xddf252ad1be2c89b69c2b068fc378daa952ba7f163c4a11628f55a4df523b3ef",
            "0x0000000000000000000000007da1d65f8b249183667cde74c5cbd46dd38aa829",
            "0x00000000000000000000000083adf05fe9f6b06aae0cffe5feac085b5349e5c8"
          ],
          "data": "0x00000000000000000000000000000000000000000000d3c1909d1e7720d0823a",
          "blockHash": "0x70814dd6ca1cb336d34ed6f8c169414a8021ee37bfa5fdc7ab366d01fe73bcc7",
          "blockNumber": "0x11ad24d",
          "transactionHash": "0xdcf4fcd8b8ffb44db01961147badfb2b8e6a722c23fa91b3394f92ca3056d202",
          "transactionIndex": "0x4",
          "logIndex": "0x11",
          "removed": false
        }
      ],
      "logsBloom": "0x0000000000000000000000001000000000000000000000000000800000000000000000000000000000001000000000000100000004000000000000000800000000000000000000000000000800000000000010000000002000000000000000000800000000000000000000000000000000000000000000400000081000000000000000000000000000000000000000000000400000000000000000000002000800000000020000000000000000000000000001000000000000000000000000000000000200000000000000000001000000000000000000000000000000000000000000000000000400c000000000008000000000000000000000000000000000",
      "type": "0x2",
      "transactionHash": "0xdcf4fcd8b8ffb44db01961147badfb2b8e6a722c23fa91b3394f92ca3056d202",
      "transactionIndex": "0x4",
      "blockHash": "0x70814dd6ca1cb336d34ed6f8c169414a8021ee37bfa5fdc7ab366d01fe73bcc7",
      "blockNumber": "0x11ad24d",
      "gasUsed": "0x36891",
      "effectiveGasPrice": "0x12b232",
      "from": "0x83aDF05fe9f6B06AaE0Cffe5feAc085B5349E5c8",
      "to": "0x96E3495b712c6589f1D2c50635FDE68CF17AC83c",
      "contractAddress": null,
      "l1BaseFeeScalar": "0x44d",
      "l1BlobBaseFee": "0xbc0",
      "l1BlobBaseFeeScalar": "0xa118b",
      "l1Fee": "0x7684f3",
      "l1GasPrice": "0x2a736a",
      "l1GasUsed": "0x985"
    },
    {
      "status": "0x1",
      "cumulativeGasUsed": "0x405233",
      "logs": [
        {
          "address": "0x7Da1D65F8B249183667cdE74C5CBD46dD38AA829",
          "topics": [
            "0x40e9cecb9f5f1f1c5b9c97dec2917b7ee92e57ba5563708daca94dd84ad7112f",
            "0xa79a7ad94ddf2c9bc2f821cadf44f49e1f3bd3d561e7e6828fd5a4a21b55f8c2",
            "0x00000000000000000000000096e3495b712c6589f1d2c50635fde68cf17ac83c"
          ],
          "data": "0xfffffffffffffffffffffffffffffffffffffffffffffffffffc72815b3980000000000000000000000000000000000000000000000000004598c05b7d700a7c000000000000000000000000000000000000003226737f4d5f5c261a9458c7d3000000000000000000000000000000000000000000000000016345785d8a000000000000000000000000000000000000000000000000000000000000000131e00000000000000000000000000000000000000000000000000000000000000bb8",
          "blockHash": "0x70814dd6ca1cb336d34ed6f8c169414a8021ee37bfa5fdc7ab366d01fe73bcc7",
          "blockNumber": "0x11ad24d",
          "transactionHash": "0x7a372a8f3f9c3906ef40afb6d3925a50267e0c3080f6e0ee2b28231aeeea8b29",
          "transactionIndex": "0x5",
          "logIndex": "0x12",
          "removed": false
        },
        {
          "address": "0x1886F6Cb5a6BB3c15B55fc75207Ef838955bbFB8",
          "topics": [
            "0xddf252ad1be2c89b69c2b068fc378daa952ba7f163c4a11628f55a4df523b3ef",
            "0x0000000000000000000000007da1d65f8b249183667cde74c5cbd46dd38aa829",
            "0x00000000000000000000000083adf05fe9f6b06aae0cffe5feac085b5349e5c8"
          ],
          "data": "0x0000000000000000000000000000000000000000000000004598c05b7d700a7c",
          "blockHash": "0x70814dd6ca1cb336d34ed6f8c169414a8021ee37bfa5fdc7ab366d01fe73bcc7",
          "blockNumber": "0x11ad24d",
          "transactionHash": "0x7a372a8f3f9c3906ef40afb6d3925a50267e0c3080f6e0ee2b28231aeeea8b29",
          "transactionIndex": "0x5",
          "logIndex": "0x13",
          "removed": false
        }
      ],
      "logsBloom": "0x0000000000000000000000001000000000000000000000000000800000000000000000000000000000001000000000000100000004000000000000000800000000000000000000000000000800000000000010000000002000000000000000000800000000000000000000000000000000000000000000400000081000000000000000000000000000000000000000000000400000000000000000000002000800000000020000000000000000000000000001000000000000000000000000000000000200000000000000000001000000000000000000000000000000000000000000000000000400c000000000008000000000000000000000000000000000",
      "type": "0x2",
      "transactionHash": "0x7a372a8f3f9c3906ef40afb6d3925a50267e0c3080f6e0ee2b28231aeeea8b29",
      "transactionIndex": "0x5",
      "blockHash": "0x70814dd6ca1cb336d34ed6f8c169414a8021ee37bfa5fdc7ab366d01fe73bcc7",
      "blockNumber": "0x11ad24d",
      "gasUsed": "0x1bfb4",
      "effectiveGasPrice": "0x12b232",
      "from": "0x83aDF05fe9f6B06AaE0Cffe5feAc085B5349E5c8",
      "to": "0x96E3495b712c6589f1D2c50635FDE68CF17AC83c",
      "contractAddress": null,
      "l1BaseFeeScalar": "0x44d",
      "l1BlobBaseFee": "0xbc0",
      "l1BlobBaseFeeScalar": "0xa118b",
      "l1Fee": "0x7684f3",
      "l1GasPrice": "0x2a736a",
      "l1GasUsed": "0x985"
    },
    {
      "status": "0x1",
      "cumulativeGasUsed": "0x4211c7",
      "logs": [
        {
          "address": "0x7Da1D65F8B249183667cdE74C5CBD46dD38AA829",
          "topics": [
            "0x40e9cecb9f5f1f1c5b9c97dec2917b7ee92e57ba5563708daca94dd84ad7112f",
            "0xa79a7ad94ddf2c9bc2f821cadf44f49e1f3bd3d561e7e6828fd5a4a21b55f8c2",
            "0x00000000000000000000000096e3495b712c6589f1d2c50635fde68cf17ac83c"
          ],
          "data": "0xfffffffffffffffffffffffffffffffffffffffffffffffffffc72815b3980000000000000000000000000000000000000000000000000001732f4f3b6fcbc4000000000000000000000000000000000000000216efb53e0fe4997a5493d8ec9000000000000000000000000000000000000000000000000016345785d8a000000000000000000000000000000000000000000000000000000000000000112320000000000000000000000000000000000000000000000000000000000000bb8",
          "blockHash": "0x70814dd6ca1cb336d34ed6f8c169414a8021ee37bfa5fdc7ab366d01fe73bcc7",
          "blockNumber": "0x11ad24d",
          "transactionHash": "0x52a8b5d0f860a9a00d4b4425cb2a50f498d2b39561e12bf347e723de3f49643a",
          "transactionIndex": "0x6",
          "logIndex": "0x14",
          "removed": false
        },
        {
          "address": "0x1886F6Cb5a6BB3c15B55fc75207Ef838955bbFB8",
          "topics": [
            "0xddf252ad1be2c89b69c2b068fc378daa952ba7f163c4a11628f55a4df523b3ef",
            "0x0000000000000000000000007da1d65f8b249183667cde74c5cbd46dd38aa829",
            "0x00000000000000000000000083adf05fe9f6b06aae0cffe5feac085b5349e5c8"
          ],
          "data": "0x0000000000000000000000000000000000000000000000001732f4f3b6fcbc40",
          "blockHash": "0x70814dd6ca1cb336d34ed6f8c169414a8021ee37bfa5fdc7ab366d01fe73bcc7",
          "blockNumber": "0x11ad24d",
          "transactionHash": "0x52a8b5d0f860a9a00d4b4425cb2a50f498d2b39561e12bf347e723de3f49643a",
          "transactionIndex": "0x6",
          "logIndex": "0x15",
          "removed": false
        }
      ],
      "logsBloom": "0x0000000000000000000000001000000000000000000000000000800000000000000000000000000000001000000000000100000004000000000000000800000000000000000000000000000800000000000010000000002000000000000000000800000000000000000000000000000000000000000000400000081000000000000000000000000000000000000000000000400000000000000000000002000800000000020000000000000000000000000001000000000000000000000000000000000200000000000000000001000000000000000000000000000000000000000000000000000400c000000000008000000000000000000000000000000000",
      "type": "0x2",
      "transactionHash": "0x52a8b5d0f860a9a00d4b4425cb2a50f498d2b39561e12bf347e723de3f49643a",
      "transactionIndex": "0x6",
      "blockHash": "0x70814dd6ca1cb336d34ed6f8c169414a8021ee37bfa5fdc7ab366d01fe73bcc7",
      "blockNumber": "0x11ad24d",
      "gasUsed": "0x1bf94",
      "effectiveGasPrice": "0x12b232",
      "from": "0x83aDF05fe9f6B06AaE0Cffe5feAc085B5349E5c8",
      "to": "0x96E3495b712c6589f1D2c50635FDE68CF17AC83c",
      "contractAddress": null,
      "l1BaseFeeScalar": "0x44d",
      "l1BlobBaseFee": "0xbc0",
      "l1BlobBaseFeeScalar": "0xa118b",
      "l1Fee": "0x7684f3",
      "l1GasPrice": "0x2a736a",
      "l1GasUsed": "0x985"
    }
  ],
  "libraries": [],
  "pending": [],
  "returns": {},
  "timestamp": 1732838272,
  "chain": 84532,
  "commit": "05753cf"
}